:100000000C942A000C9434000C9434000C943400AA
:100010000C9434000C9434000C9434000C94340090
:100020000C9434000C9434000C9434000C94340080
:100030000C9434000C9434000C9434000C94340070
:100040000C9434000C9434000C9434000C94340060
:100050000C94340011241FBECFE5D8E0DEBFCDBF25
:100060000E94D4000C9449020C940000DF93CF93BB
:1000700000D0CDB7DEB79A83898389819A81813098
:10008000910599F488E390E028E330E0F9012081BC
:100090002061FC01208388E390E028E330E0F9014F
:1000A00020812B7FFC0120832BC089819A81FFEF67
:1000B0008F3F9F0799F488E390E028E330E0F9014F
:1000C00020812460FC01208388E390E028E330E075
:1000D000F90120812F7EFC01208312C088E390E08B
:1000E00028E330E0F90120812B7FFC01208388E3A5
:1000F00090E028E330E0F90120812F7EFC0120838D
:100100000F900F90CF91DF910895DF93CF9300D0A0
:10011000CDB7DEB79A83898389819A818130910531
:1001200099F488E390E028E330E0F9012081216030
:10013000FC01208388E390E028E330E0F90120818E
:100140002D7FFC0120832BC089819A81FFEF8F3F97
:100150009F0799F488E390E028E330E0F9012081DB
:100160002E7FFC01208388E390E028E330E0F90152
:1001700020812260FC01208312C088E390E028E304
:1001800030E0F90120812E7FFC01208388E390E09C
:1001900028E330E0F90120812D7FFC0120830F90BE
:1001A0000F90CF91DF910895DF93CF930F92CDB74A
:1001B000DEB78AE390E0FC01108287E390E02FEF46
:1001C000FC01208381E390E02FEFFC01208389E391
:1001D00090E0FC01808189838981882F90E08B38B1
:1001E000910509F4F2C08C389105CCF58B3491055A
:1001F00009F433C18C349105CCF48B31910509F4A9
:1002000035C18C3191054CF48330910509F4F8C067
:100210008B30910509F418C132C18F31910509F471
:100220000AC18B33910509F4FDC029C18F379105AF
:1002300009F44DC0803891054CF48337910509F4D9
:10024000A0C08B37910509F4E4C019C1833891052A
:1002500009F4CDC08738910509F4C0C010C18F3BA7
:10026000910509F43DC0803C9105CCF48739910596
:1002700009F499C0883991054CF48F38910509F437
:1002800077C08339910509F497C0F9C08B3991057E
:1002900009F480C08F39910509F461C0F0C08F3E28
:1002A000910581F1803F91053CF48F3C910599F1D6
:1002B0008F3D9105F1F0E3C0873F9105A9F18B3F98
:1002C0009105D9F1833F910509F440C0D8C080E081
:1002D00090E00E94360080E090E00E948500D8C047
:1002E00080E090E00E94360080E090E00E9485006F
:1002F000CFC081E090E00E94360080E090E00E9454
:100300008500C6C081E090E00E94360080E090E069
:100310000E948500BDC081E090E00E9436008FEF12
:100320009FEF0E948500B4C080E090E00E943600FC
:1003300081E090E00E948500ABC080E090E00E94E8
:10034000360081E090E00E948500A2C08FEF9FEF11
:100350000E94360081E090E00E94850099C081E013
:1003600090E00E94360081E090E00E94850090C0FD
:1003700081E090E00E9436008FEF9FEF0E948500A1
:1003800087C08FEF9FEF0E94360081E090E00E94CF
:1003900085007EC081E090E00E9436008FEF9FEFE5
:1003A0000E94850075C081E090E00E94360080E0E8
:1003B00090E00E9485006CC080E090E00E943600D2
:1003C00080E090E00E94850063C081E090E00E94A0
:1003D00036008FEF9FEF0E9485005AC081E090E0C9
:1003E0000E94360080E090E00E94850051C080E0CD
:1003F00090E00E94360080E090E00E94850048C0B6
:1004000080E090E00E94360080E090E00E9485004D
:100410003FC080E090E00E94360081E090E00E94C2
:10042000850036C080E090E00E94360080E090E0D9
:100430000E9485002DC080E090E00E94360080E0A0
:1004400090E00E94850024C080E090E00E94360089
:1004500080E090E00E9485001BC08FEF9FEF0E941C
:10046000360081E090E00E94850012C080E090E0BC
:100470000E94360080E090E00E94850009C081E083
:1004800090E00E94360081E090E00E94850000002C
:060490009ECEF894FFCFA0
:00000001FF
